{
  "contractName": "OscarGrouchToken",
  "abi": [
    {
      "inputs": [],
      "stateMutability": "nonpayable",
      "type": "constructor"
    },
    {
      "inputs": [
        {
          "internalType": "address",
          "name": "spender",
          "type": "address"
        },
        {
          "internalType": "uint256",
          "name": "allowance",
          "type": "uint256"
        },
        {
          "internalType": "uint256",
          "name": "needed",
          "type": "uint256"
        }
      ],
      "name": "ERC20InsufficientAllowance",
      "type": "error"
    },
    {
      "inputs": [
        {
          "internalType": "address",
          "name": "sender",
          "type": "address"
        },
        {
          "internalType": "uint256",
          "name": "balance",
          "type": "uint256"
        },
        {
          "internalType": "uint256",
          "name": "needed",
          "type": "uint256"
        }
      ],
      "name": "ERC20InsufficientBalance",
      "type": "error"
    },
    {
      "inputs": [
        {
          "internalType": "address",
          "name": "approver",
          "type": "address"
        }
      ],
      "name": "ERC20InvalidApprover",
      "type": "error"
    },
    {
      "inputs": [
        {
          "internalType": "address",
          "name": "receiver",
          "type": "address"
        }
      ],
      "name": "ERC20InvalidReceiver",
      "type": "error"
    },
    {
      "inputs": [
        {
          "internalType": "address",
          "name": "sender",
          "type": "address"
        }
      ],
      "name": "ERC20InvalidSender",
      "type": "error"
    },
    {
      "inputs": [
        {
          "internalType": "address",
          "name": "spender",
          "type": "address"
        }
      ],
      "name": "ERC20InvalidSpender",
      "type": "error"
    },
    {
      "inputs": [
        {
          "internalType": "address",
          "name": "owner",
          "type": "address"
        }
      ],
      "name": "OwnableInvalidOwner",
      "type": "error"
    },
    {
      "inputs": [
        {
          "internalType": "address",
          "name": "account",
          "type": "address"
        }
      ],
      "name": "OwnableUnauthorizedAccount",
      "type": "error"
    },
    {
      "anonymous": false,
      "inputs": [
        {
          "indexed": true,
          "internalType": "address",
          "name": "owner",
          "type": "address"
        },
        {
          "indexed": true,
          "internalType": "address",
          "name": "spender",
          "type": "address"
        },
        {
          "indexed": false,
          "internalType": "uint256",
          "name": "value",
          "type": "uint256"
        }
      ],
      "name": "Approval",
      "type": "event"
    },
    {
      "anonymous": false,
      "inputs": [
        {
          "indexed": true,
          "internalType": "address",
          "name": "previousOwner",
          "type": "address"
        },
        {
          "indexed": true,
          "internalType": "address",
          "name": "newOwner",
          "type": "address"
        }
      ],
      "name": "OwnershipTransferred",
      "type": "event"
    },
    {
      "anonymous": false,
      "inputs": [
        {
          "indexed": true,
          "internalType": "address",
          "name": "from",
          "type": "address"
        },
        {
          "indexed": true,
          "internalType": "address",
          "name": "to",
          "type": "address"
        },
        {
          "indexed": false,
          "internalType": "uint256",
          "name": "value",
          "type": "uint256"
        }
      ],
      "name": "Transfer",
      "type": "event"
    },
    {
      "inputs": [],
      "name": "INITIAL_SUPPLY",
      "outputs": [
        {
          "internalType": "uint256",
          "name": "",
          "type": "uint256"
        }
      ],
      "stateMutability": "view",
      "type": "function"
    },
    {
      "inputs": [
        {
          "internalType": "address",
          "name": "owner",
          "type": "address"
        },
        {
          "internalType": "address",
          "name": "spender",
          "type": "address"
        }
      ],
      "name": "allowance",
      "outputs": [
        {
          "internalType": "uint256",
          "name": "",
          "type": "uint256"
        }
      ],
      "stateMutability": "view",
      "type": "function"
    },
    {
      "inputs": [
        {
          "internalType": "address",
          "name": "spender",
          "type": "address"
        },
        {
          "internalType": "uint256",
          "name": "value",
          "type": "uint256"
        }
      ],
      "name": "approve",
      "outputs": [
        {
          "internalType": "bool",
          "name": "",
          "type": "bool"
        }
      ],
      "stateMutability": "nonpayable",
      "type": "function"
    },
    {
      "inputs": [
        {
          "internalType": "address",
          "name": "account",
          "type": "address"
        }
      ],
      "name": "balanceOf",
      "outputs": [
        {
          "internalType": "uint256",
          "name": "",
          "type": "uint256"
        }
      ],
      "stateMutability": "view",
      "type": "function"
    },
    {
      "inputs": [],
      "name": "decimals",
      "outputs": [
        {
          "internalType": "uint8",
          "name": "",
          "type": "uint8"
        }
      ],
      "stateMutability": "view",
      "type": "function"
    },
    {
      "inputs": [],
      "name": "name",
      "outputs": [
        {
          "internalType": "string",
          "name": "",
          "type": "string"
        }
      ],
      "stateMutability": "view",
      "type": "function"
    },
    {
      "inputs": [],
      "name": "owner",
      "outputs": [
        {
          "internalType": "address",
          "name": "",
          "type": "address"
        }
      ],
      "stateMutability": "view",
      "type": "function"
    },
    {
      "inputs": [],
      "name": "renounceOwnership",
      "outputs": [],
      "stateMutability": "nonpayable",
      "type": "function"
    },
    {
      "inputs": [],
      "name": "symbol",
      "outputs": [
        {
          "internalType": "string",
          "name": "",
          "type": "string"
        }
      ],
      "stateMutability": "view",
      "type": "function"
    },
    {
      "inputs": [],
      "name": "totalSupply",
      "outputs": [
        {
          "internalType": "uint256",
          "name": "",
          "type": "uint256"
        }
      ],
      "stateMutability": "view",
      "type": "function"
    },
    {
      "inputs": [
        {
          "internalType": "address",
          "name": "to",
          "type": "address"
        },
        {
          "internalType": "uint256",
          "name": "value",
          "type": "uint256"
        }
      ],
      "name": "transfer",
      "outputs": [
        {
          "internalType": "bool",
          "name": "",
          "type": "bool"
        }
      ],
      "stateMutability": "nonpayable",
      "type": "function"
    },
    {
      "inputs": [
        {
          "internalType": "address",
          "name": "from",
          "type": "address"
        },
        {
          "internalType": "address",
          "name": "to",
          "type": "address"
        },
        {
          "internalType": "uint256",
          "name": "value",
          "type": "uint256"
        }
      ],
      "name": "transferFrom",
      "outputs": [
        {
          "internalType": "bool",
          "name": "",
          "type": "bool"
        }
      ],
      "stateMutability": "nonpayable",
      "type": "function"
    },
    {
      "inputs": [
        {
          "internalType": "address",
          "name": "newOwner",
          "type": "address"
        }
      ],
      "name": "transferOwnership",
      "outputs": [],
      "stateMutability": "nonpayable",
      "type": "function"
    },
    {
      "inputs": [
        {
          "internalType": "address[]",
          "name": "recipients",
          "type": "address[]"
        },
        {
          "internalType": "uint256",
          "name": "amount",
          "type": "uint256"
        }
      ],
      "name": "airdrop",
      "outputs": [],
      "stateMutability": "nonpayable",
      "type": "function"
    },
    {
      "inputs": [
        {
          "internalType": "address[]",
          "name": "recipients",
          "type": "address[]"
        }
      ],
      "name": "randomReward",
      "outputs": [],
      "stateMutability": "nonpayable",
      "type": "function"
    }
  ],
  "bytecode": "0x608060405234801562000010575f80fd5b50336040518060400160405280601281526020017f4f736361722047726f75636820546f6b656e00000000000000000000000000008152506040518060400160405280600381526020017f4f4754000000000000000000000000000000000000000000000000000000000081525081600390816200008f919062000737565b508060049081620000a1919062000737565b5050505f73ffffffffffffffffffffffffffffffffffffffff168173ffffffffffffffffffffffffffffffffffffffff160362000117575f6040517f1e4fbdf70000000000000000000000000000000000000000000000000000000081526004016200010e91906200085e565b60405180910390fd5b62000128816200016260201b60201c565b506200015c336012600a6200013e9190620009f6565b64e8d4a5100062000150919062000a46565b6200022560201b60201c565b62000b31565b5f60055f9054906101000a900473ffffffffffffffffffffffffffffffffffffffff1690508160055f6101000a81548173ffffffffffffffffffffffffffffffffffffffff021916908373ffffffffffffffffffffffffffffffffffffffff1602179055508173ffffffffffffffffffffffffffffffffffffffff168173ffffffffffffffffffffffffffffffffffffffff167f8be0079c531659141344cd1fd0a4f28419497f9722a3daafe3b4186f6b6457e060405160405180910390a35050565b5f73ffffffffffffffffffffffffffffffffffffffff168273ffffffffffffffffffffffffffffffffffffffff160362000298575f6040517fec442f050000000000000000000000000000000000000000000000000000000081526004016200028f91906200085e565b60405180910390fd5b620002ab5f8383620002af60201b60201c565b5050565b5f73ffffffffffffffffffffffffffffffffffffffff168373ffffffffffffffffffffffffffffffffffffffff160362000303578060025f828254620002f6919062000a90565b92505081905550620003d4565b5f805f8573ffffffffffffffffffffffffffffffffffffffff1673ffffffffffffffffffffffffffffffffffffffff1681526020019081526020015f20549050818110156200038f578381836040517fe450d38c000000000000000000000000000000000000000000000000000000008152600401620003869392919062000adb565b60405180910390fd5b8181035f808673ffffffffffffffffffffffffffffffffffffffff1673ffffffffffffffffffffffffffffffffffffffff1681526020019081526020015f2081905550505b5f73ffffffffffffffffffffffffffffffffffffffff168273ffffffffffffffffffffffffffffffffffffffff16036200041d578060025f828254039250508190555062000467565b805f808473ffffffffffffffffffffffffffffffffffffffff1673ffffffffffffffffffffffffffffffffffffffff1681526020019081526020015f205f82825401925050819055505b8173ffffffffffffffffffffffffffffffffffffffff168373ffffffffffffffffffffffffffffffffffffffff167fddf252ad1be2c89b69c2b068fc378daa952ba7f163c4a11628f55a4df523b3ef83604051620004c6919062000b16565b60405180910390a3505050565b5f81519050919050565b7f4e487b71000000000000000000000000000000000000000000000000000000005f52604160045260245ffd5b7f4e487b71000000000000000000000000000000000000000000000000000000005f52602260045260245ffd5b5f60028204905060018216806200054f57607f821691505b6020821081036200056557620005646200050a565b5b50919050565b5f819050815f5260205f209050919050565b5f6020601f8301049050919050565b5f82821b905092915050565b5f60088302620005c97fffffffffffffffffffffffffffffffffffffffffffffffffffffffffffffffff826200058c565b620005d586836200058c565b95508019841693508086168417925050509392505050565b5f819050919050565b5f819050919050565b5f6200061f620006196200061384620005ed565b620005f6565b620005ed565b9050919050565b5f819050919050565b6200063a83620005ff565b62000652620006498262000626565b84845462000598565b825550505050565b5f90565b620006686200065a565b620006758184846200062f565b505050565b5b818110156200069c57620006905f826200065e565b6001810190506200067b565b5050565b601f821115620006eb57620006b5816200056b565b620006c0846200057d565b81016020851015620006d0578190505b620006e8620006df856200057d565b8301826200067a565b50505b505050565b5f82821c905092915050565b5f6200070d5f1984600802620006f0565b1980831691505092915050565b5f620007278383620006fc565b9150826002028217905092915050565b6200074282620004d3565b67ffffffffffffffff8111156200075e576200075d620004dd565b5b6200076a825462000537565b62000777828285620006a0565b5f60209050601f831160018114620007ad575f841562000798578287015190505b620007a485826200071a565b86555062000813565b601f198416620007bd866200056b565b5f5b82811015620007e657848901518255600182019150602085019450602081019050620007bf565b8683101562000806578489015162000802601f891682620006fc565b8355505b6001600288020188555050505b505050505050565b5f73ffffffffffffffffffffffffffffffffffffffff82169050919050565b5f62000846826200081b565b9050919050565b62000858816200083a565b82525050565b5f602082019050620008735f8301846200084d565b92915050565b7f4e487b71000000000000000000000000000000000000000000000000000000005f52601160045260245ffd5b5f8160011c9050919050565b5f808291508390505b60018511156200090357808604811115620008db57620008da62000879565b5b6001851615620008eb5780820291505b8081029050620008fb85620008a6565b9450620008bb565b94509492505050565b5f826200091d5760019050620009ef565b816200092c575f9050620009ef565b8160018114620009455760028114620009505762000986565b6001915050620009ef565b60ff84111562000965576200096462000879565b5b8360020a9150848211156200097f576200097e62000879565b5b50620009ef565b5060208310610133831016604e8410600b8410161715620009c05782820a905083811115620009ba57620009b962000879565b5b620009ef565b620009cf8484846001620008b2565b92509050818404811115620009e957620009e862000879565b5b81810290505b9392505050565b5f62000a0282620005ed565b915062000a0f83620005ed565b925062000a3e7fffffffffffffffffffffffffffffffffffffffffffffffffffffffffffffffff84846200090c565b905092915050565b5f62000a5282620005ed565b915062000a5f83620005ed565b925082820262000a6f81620005ed565b9150828204841483151762000a895762000a8862000879565b5b5092915050565b5f62000a9c82620005ed565b915062000aa983620005ed565b925082820190508082111562000ac45762000ac362000879565b5b92915050565b62000ad581620005ed565b82525050565b5f60608201905062000af05f8301866200084d565b62000aff602083018562000aca565b62000b0e604083018462000aca565b949350505050565b5f60208201905062000b2b5f83018462000aca565b92915050565b61174e8062000b3f5f395ff3fe608060405234801561000f575f80fd5b50600436106100f3575f3560e01c806370a0823111610095578063a9059cbb11610064578063a9059cbb14610261578063c204642c14610291578063dd62ed3e146102ad578063f2fde38b146102dd576100f3565b806370a08231146101eb578063715018a61461021b5780638da5cb5b1461022557806395d89b4114610243576100f3565b806323b872dd116100d157806323b872dd146101635780632ff2e9dc14610193578063313ce567146101b1578063532957bd146101cf576100f3565b806306fdde03146100f7578063095ea7b31461011557806318160ddd14610145575b5f80fd5b6100ff6102f9565b60405161010c9190610ebe565b60405180910390f35b61012f600480360381019061012a9190610f7c565b610389565b60405161013c9190610fd4565b60405180910390f35b61014d6103ab565b60405161015a9190610ffc565b60405180910390f35b61017d60048036038101906101789190611015565b6103b4565b60405161018a9190610fd4565b60405180910390f35b61019b6103e2565b6040516101a89190610ffc565b60405180910390f35b6101b9610403565b6040516101c69190611080565b60405180910390f35b6101e960048036038101906101e491906111d9565b61040b565b005b61020560048036038101906102009190611220565b6104d8565b6040516102129190610ffc565b60405180910390f35b61022361051d565b005b61022d610530565b60405161023a919061125a565b60405180910390f35b61024b610558565b6040516102589190610ebe565b60405180910390f35b61027b60048036038101906102769190610f7c565b6105e8565b6040516102889190610fd4565b60405180910390f35b6102ab60048036038101906102a69190611273565b61060a565b005b6102c760048036038101906102c291906112cd565b610661565b6040516102d49190610ffc565b60405180910390f35b6102f760048036038101906102f29190611220565b6106e3565b005b60606003805461030890611338565b80601f016020809104026020016040519081016040528092919081815260200182805461033490611338565b801561037f5780601f106103565761010080835404028352916020019161037f565b820191905f5260205f20905b81548152906001019060200180831161036257829003601f168201915b5050505050905090565b5f80610393610767565b90506103a081858561076e565b600191505092915050565b5f600254905090565b5f806103be610767565b90506103cb858285610780565b6103d6858585610812565b60019150509392505050565b6012600a6103f091906114c4565b64e8d4a51000610400919061150e565b81565b5f6012905090565b610413610902565b5f6012600a61042291906114c4565b61138861042f919061150e565b90505f5b82518110156104d3575f6002428584815181106104535761045261154f565b5b602002602001015160405160200161046c9291906115e1565b604051602081830303815290604052805190602001205f1c61048e9190611639565b036104c0576104bf61049e610530565b8483815181106104b1576104b061154f565b5b602002602001015184610812565b5b80806104cb90611669565b915050610433565b505050565b5f805f8373ffffffffffffffffffffffffffffffffffffffff1673ffffffffffffffffffffffffffffffffffffffff1681526020019081526020015f20549050919050565b610525610902565b61052e5f610989565b565b5f60055f9054906101000a900473ffffffffffffffffffffffffffffffffffffffff16905090565b60606004805461056790611338565b80601f016020809104026020016040519081016040528092919081815260200182805461059390611338565b80156105de5780601f106105b5576101008083540402835291602001916105de565b820191905f5260205f20905b8154815290600101906020018083116105c157829003601f168201915b5050505050905090565b5f806105f2610767565b90506105ff818585610812565b600191505092915050565b610612610902565b5f5b825181101561065c57610649610628610530565b84838151811061063b5761063a61154f565b5b602002602001015184610812565b808061065490611669565b915050610614565b505050565b5f60015f8473ffffffffffffffffffffffffffffffffffffffff1673ffffffffffffffffffffffffffffffffffffffff1681526020019081526020015f205f8373ffffffffffffffffffffffffffffffffffffffff1673ffffffffffffffffffffffffffffffffffffffff1681526020019081526020015f2054905092915050565b6106eb610902565b5f73ffffffffffffffffffffffffffffffffffffffff168173ffffffffffffffffffffffffffffffffffffffff160361075b575f6040517f1e4fbdf7000000000000000000000000000000000000000000000000000000008152600401610752919061125a565b60405180910390fd5b61076481610989565b50565b5f33905090565b61077b8383836001610a4c565b505050565b5f61078b8484610661565b90507fffffffffffffffffffffffffffffffffffffffffffffffffffffffffffffffff811461080c57818110156107fd578281836040517ffb8f41b20000000000000000000000000000000000000000000000000000000081526004016107f4939291906116b0565b60405180910390fd5b61080b84848484035f610a4c565b5b50505050565b5f73ffffffffffffffffffffffffffffffffffffffff168373ffffffffffffffffffffffffffffffffffffffff1603610882575f6040517f96c6fd1e000000000000000000000000000000000000000000000000000000008152600401610879919061125a565b60405180910390fd5b5f73ffffffffffffffffffffffffffffffffffffffff168273ffffffffffffffffffffffffffffffffffffffff16036108f2575f6040517fec442f050000000000000000000000000000000000000000000000000000000081526004016108e9919061125a565b60405180910390fd5b6108fd838383610c1b565b505050565b61090a610767565b73ffffffffffffffffffffffffffffffffffffffff16610928610530565b73ffffffffffffffffffffffffffffffffffffffff16146109875761094b610767565b6040517f118cdaa700000000000000000000000000000000000000000000000000000000815260040161097e919061125a565b60405180910390fd5b565b5f60055f9054906101000a900473ffffffffffffffffffffffffffffffffffffffff1690508160055f6101000a81548173ffffffffffffffffffffffffffffffffffffffff021916908373ffffffffffffffffffffffffffffffffffffffff1602179055508173ffffffffffffffffffffffffffffffffffffffff168173ffffffffffffffffffffffffffffffffffffffff167f8be0079c531659141344cd1fd0a4f28419497f9722a3daafe3b4186f6b6457e060405160405180910390a35050565b5f73ffffffffffffffffffffffffffffffffffffffff168473ffffffffffffffffffffffffffffffffffffffff1603610abc575f6040517fe602df05000000000000000000000000000000000000000000000000000000008152600401610ab3919061125a565b60405180910390fd5b5f73ffffffffffffffffffffffffffffffffffffffff168373ffffffffffffffffffffffffffffffffffffffff1603610b2c575f6040517f94280d62000000000000000000000000000000000000000000000000000000008152600401610b23919061125a565b60405180910390fd5b8160015f8673ffffffffffffffffffffffffffffffffffffffff1673ffffffffffffffffffffffffffffffffffffffff1681526020019081526020015f205f8573ffffffffffffffffffffffffffffffffffffffff1673ffffffffffffffffffffffffffffffffffffffff1681526020019081526020015f20819055508015610c15578273ffffffffffffffffffffffffffffffffffffffff168473ffffffffffffffffffffffffffffffffffffffff167f8c5be1e5ebec7d5bd14f71427d1e84f3dd0314c0f7b2291e5b200ac8c7c3b92584604051610c0c9190610ffc565b60405180910390a35b50505050565b5f73ffffffffffffffffffffffffffffffffffffffff168373ffffffffffffffffffffffffffffffffffffffff1603610c6b578060025f828254610c5f91906116e5565b92505081905550610d39565b5f805f8573ffffffffffffffffffffffffffffffffffffffff1673ffffffffffffffffffffffffffffffffffffffff1681526020019081526020015f2054905081811015610cf4578381836040517fe450d38c000000000000000000000000000000000000000000000000000000008152600401610ceb939291906116b0565b60405180910390fd5b8181035f808673ffffffffffffffffffffffffffffffffffffffff1673ffffffffffffffffffffffffffffffffffffffff1681526020019081526020015f2081905550505b5f73ffffffffffffffffffffffffffffffffffffffff168273ffffffffffffffffffffffffffffffffffffffff1603610d80578060025f8282540392505081905550610dca565b805f808473ffffffffffffffffffffffffffffffffffffffff1673ffffffffffffffffffffffffffffffffffffffff1681526020019081526020015f205f82825401925050819055505b8173ffffffffffffffffffffffffffffffffffffffff168373ffffffffffffffffffffffffffffffffffffffff167fddf252ad1be2c89b69c2b068fc378daa952ba7f163c4a11628f55a4df523b3ef83604051610e279190610ffc565b60405180910390a3505050565b5f81519050919050565b5f82825260208201905092915050565b5f5b83811015610e6b578082015181840152602081019050610e50565b5f8484015250505050565b5f601f19601f8301169050919050565b5f610e9082610e34565b610e9a8185610e3e565b9350610eaa818560208601610e4e565b610eb381610e76565b840191505092915050565b5f6020820190508181035f830152610ed68184610e86565b905092915050565b5f604051905090565b5f80fd5b5f80fd5b5f73ffffffffffffffffffffffffffffffffffffffff82169050919050565b5f610f1882610eef565b9050919050565b610f2881610f0e565b8114610f32575f80fd5b50565b5f81359050610f4381610f1f565b92915050565b5f819050919050565b610f5b81610f49565b8114610f65575f80fd5b50565b5f81359050610f7681610f52565b92915050565b5f8060408385031215610f9257610f91610ee7565b5b5f610f9f85828601610f35565b9250506020610fb085828601610f68565b9150509250929050565b5f8115159050919050565b610fce81610fba565b82525050565b5f602082019050610fe75f830184610fc5565b92915050565b610ff681610f49565b82525050565b5f60208201905061100f5f830184610fed565b92915050565b5f805f6060848603121561102c5761102b610ee7565b5b5f61103986828701610f35565b935050602061104a86828701610f35565b925050604061105b86828701610f68565b9150509250925092565b5f60ff82169050919050565b61107a81611065565b82525050565b5f6020820190506110935f830184611071565b92915050565b5f80fd5b7f4e487b71000000000000000000000000000000000000000000000000000000005f52604160045260245ffd5b6110d382610e76565b810181811067ffffffffffffffff821117156110f2576110f161109d565b5b80604052505050565b5f611104610ede565b905061111082826110ca565b919050565b5f67ffffffffffffffff82111561112f5761112e61109d565b5b602082029050602081019050919050565b5f80fd5b5f61115661115184611115565b6110fb565b9050808382526020820190506020840283018581111561117957611178611140565b5b835b818110156111a2578061118e8882610f35565b84526020840193505060208101905061117b565b5050509392505050565b5f82601f8301126111c0576111bf611099565b5b81356111d0848260208601611144565b91505092915050565b5f602082840312156111ee576111ed610ee7565b5b5f82013567ffffffffffffffff81111561120b5761120a610eeb565b5b611217848285016111ac565b91505092915050565b5f6020828403121561123557611234610ee7565b5b5f61124284828501610f35565b91505092915050565b61125481610f0e565b82525050565b5f60208201905061126d5f83018461124b565b92915050565b5f806040838503121561128957611288610ee7565b5b5f83013567ffffffffffffffff8111156112a6576112a5610eeb565b5b6112b2858286016111ac565b92505060206112c385828601610f68565b9150509250929050565b5f80604083850312156112e3576112e2610ee7565b5b5f6112f085828601610f35565b925050602061130185828601610f35565b9150509250929050565b7f4e487b71000000000000000000000000000000000000000000000000000000005f52602260045260245ffd5b5f600282049050600182168061134f57607f821691505b6020821081036113625761136161130b565b5b50919050565b7f4e487b71000000000000000000000000000000000000000000000000000000005f52601160045260245ffd5b5f8160011c9050919050565b5f808291508390505b60018511156113ea578086048111156113c6576113c5611368565b5b60018516156113d55780820291505b80810290506113e385611395565b94506113aa565b94509492505050565b5f8261140257600190506114bd565b8161140f575f90506114bd565b8160018114611425576002811461142f5761145e565b60019150506114bd565b60ff84111561144157611440611368565b5b8360020a91508482111561145857611457611368565b5b506114bd565b5060208310610133831016604e8410600b84101617156114935782820a90508381111561148e5761148d611368565b5b6114bd565b6114a084848460016113a1565b925090508184048111156114b7576114b6611368565b5b81810290505b9392505050565b5f6114ce82610f49565b91506114d983610f49565b92506115067fffffffffffffffffffffffffffffffffffffffffffffffffffffffffffffffff84846113f3565b905092915050565b5f61151882610f49565b915061152383610f49565b925082820261153181610f49565b9150828204841483151761154857611547611368565b5b5092915050565b7f4e487b71000000000000000000000000000000000000000000000000000000005f52603260045260245ffd5b5f819050919050565b61159661159182610f49565b61157c565b82525050565b5f8160601b9050919050565b5f6115b28261159c565b9050919050565b5f6115c3826115a8565b9050919050565b6115db6115d682610f0e565b6115b9565b82525050565b5f6115ec8285611585565b6020820191506115fc82846115ca565b6014820191508190509392505050565b7f4e487b71000000000000000000000000000000000000000000000000000000005f52601260045260245ffd5b5f61164382610f49565b915061164e83610f49565b92508261165e5761165d61160c565b5b828206905092915050565b5f61167382610f49565b91507fffffffffffffffffffffffffffffffffffffffffffffffffffffffffffffffff82036116a5576116a4611368565b5b600182019050919050565b5f6060820190506116c35f83018661124b565b6116d06020830185610fed565b6116dd6040830184610fed565b949350505050565b5f6116ef82610f49565b91506116fa83610f49565b925082820190508082111561171257611711611368565b5b9291505056fea2646970667358221220738802c9400c02f2325b6e5d7ca6762fffbb9a545b9c6702b456c293b872884c64736f6c63430008140033",
  "immutableReferences": {},
  "source": "// SPDX-License-Identifier: MIT\r\npragma solidity ^0.8.20;\r\n\r\nimport \"@openzeppelin/contracts/token/ERC20/ERC20.sol\";\r\nimport \"@openzeppelin/contracts/access/Ownable.sol\";\r\n\r\ncontract OscarGrouchToken is ERC20, Ownable {\r\n\r\n    // Initial supply: 1,000,000,000,000 tokens\r\n    uint256 public constant INITIAL_SUPPLY = 1000000000000 * (10 ** uint256(18));\r\n\r\n    constructor() ERC20(\"Oscar Grouch Token\", \"OGT\") Ownable(msg.sender) {\r\n        _mint(msg.sender, INITIAL_SUPPLY);\r\n    }\r\n\r\n    // Airdrop functionality to distribute tokens to multiple addresses\r\n    function airdrop(address[] memory recipients, uint256 amount) public onlyOwner {\r\n        for (uint256 i = 0; i < recipients.length; i++) {\r\n            _transfer(owner(), recipients[i], amount);\r\n        }\r\n    }\r\n\r\n    // Fun feature: Random reward distribution (just an example, can be expanded)\r\n    function randomReward(address[] memory recipients) public onlyOwner {\r\n        uint256 rewardAmount = 5000 * (10 ** uint256(18)); // 5000 tokens as a reward\r\n        for (uint256 i = 0; i < recipients.length; i++) {\r\n            if (uint256(keccak256(abi.encodePacked(block.timestamp, recipients[i]))) % 2 == 0) {\r\n                _transfer(owner(), recipients[i], rewardAmount);\r\n            }\r\n        }\r\n    }\r\n}\r\n\r\n\r\n\r\n\r\n",
  "sourcePath": "C:\\Users\\due\\Documents\\the-grouch-coin\\OscarGrouchToken\\contracts\\OscarGrouchToken.sol",
  "compiler": {
    "name": "solc",
    "version": "0.8.20+commit.a1b79de6.Emscripten.clang"
  },
  "schemaVersion": "3.4.16",
  "updatedAt": "2024-07-19T16:16:11.249Z",
  "devdoc": {
    "errors": {
      "ERC20InsufficientAllowance(address,uint256,uint256)": [
        {
          "details": "Indicates a failure with the `spender`s `allowance`. Used in transfers.",
          "params": {
            "allowance": "Amount of tokens a `spender` is allowed to operate with.",
            "needed": "Minimum amount required to perform a transfer.",
            "spender": "Address that may be allowed to operate on tokens without being their owner."
          }
        }
      ],
      "ERC20InsufficientBalance(address,uint256,uint256)": [
        {
          "details": "Indicates an error related to the current `balance` of a `sender`. Used in transfers.",
          "params": {
            "balance": "Current balance for the interacting account.",
            "needed": "Minimum amount required to perform a transfer.",
            "sender": "Address whose tokens are being transferred."
          }
        }
      ],
      "ERC20InvalidApprover(address)": [
        {
          "details": "Indicates a failure with the `approver` of a token to be approved. Used in approvals.",
          "params": {
            "approver": "Address initiating an approval operation."
          }
        }
      ],
      "ERC20InvalidReceiver(address)": [
        {
          "details": "Indicates a failure with the token `receiver`. Used in transfers.",
          "params": {
            "receiver": "Address to which tokens are being transferred."
          }
        }
      ],
      "ERC20InvalidSender(address)": [
        {
          "details": "Indicates a failure with the token `sender`. Used in transfers.",
          "params": {
            "sender": "Address whose tokens are being transferred."
          }
        }
      ],
      "ERC20InvalidSpender(address)": [
        {
          "details": "Indicates a failure with the `spender` to be approved. Used in approvals.",
          "params": {
            "spender": "Address that may be allowed to operate on tokens without being their owner."
          }
        }
      ],
      "OwnableInvalidOwner(address)": [
        {
          "details": "The owner is not a valid owner account. (eg. `address(0)`)"
        }
      ],
      "OwnableUnauthorizedAccount(address)": [
        {
          "details": "The caller account is not authorized to perform an operation."
        }
      ]
    },
    "events": {
      "Approval(address,address,uint256)": {
        "details": "Emitted when the allowance of a `spender` for an `owner` is set by a call to {approve}. `value` is the new allowance."
      },
      "Transfer(address,address,uint256)": {
        "details": "Emitted when `value` tokens are moved from one account (`from`) to another (`to`). Note that `value` may be zero."
      }
    },
    "kind": "dev",
    "methods": {
      "allowance(address,address)": {
        "details": "See {IERC20-allowance}."
      },
      "approve(address,uint256)": {
        "details": "See {IERC20-approve}. NOTE: If `value` is the maximum `uint256`, the allowance is not updated on `transferFrom`. This is semantically equivalent to an infinite approval. Requirements: - `spender` cannot be the zero address."
      },
      "balanceOf(address)": {
        "details": "See {IERC20-balanceOf}."
      },
      "decimals()": {
        "details": "Returns the number of decimals used to get its user representation. For example, if `decimals` equals `2`, a balance of `505` tokens should be displayed to a user as `5.05` (`505 / 10 ** 2`). Tokens usually opt for a value of 18, imitating the relationship between Ether and Wei. This is the default value returned by this function, unless it's overridden. NOTE: This information is only used for _display_ purposes: it in no way affects any of the arithmetic of the contract, including {IERC20-balanceOf} and {IERC20-transfer}."
      },
      "name()": {
        "details": "Returns the name of the token."
      },
      "owner()": {
        "details": "Returns the address of the current owner."
      },
      "renounceOwnership()": {
        "details": "Leaves the contract without owner. It will not be possible to call `onlyOwner` functions. Can only be called by the current owner. NOTE: Renouncing ownership will leave the contract without an owner, thereby disabling any functionality that is only available to the owner."
      },
      "symbol()": {
        "details": "Returns the symbol of the token, usually a shorter version of the name."
      },
      "totalSupply()": {
        "details": "See {IERC20-totalSupply}."
      },
      "transfer(address,uint256)": {
        "details": "See {IERC20-transfer}. Requirements: - `to` cannot be the zero address. - the caller must have a balance of at least `value`."
      },
      "transferFrom(address,address,uint256)": {
        "details": "See {IERC20-transferFrom}. Emits an {Approval} event indicating the updated allowance. This is not required by the EIP. See the note at the beginning of {ERC20}. NOTE: Does not update the allowance if the current allowance is the maximum `uint256`. Requirements: - `from` and `to` cannot be the zero address. - `from` must have a balance of at least `value`. - the caller must have allowance for ``from``'s tokens of at least `value`."
      },
      "transferOwnership(address)": {
        "details": "Transfers ownership of the contract to a new account (`newOwner`). Can only be called by the current owner."
      }
    },
    "version": 1
  },
  "userdoc": {
    "kind": "user",
    "methods": {},
    "version": 1
  }
}